{
  "contractName": "GrandHouse",
  "abi": [
    {
      "constant": false,
      "inputs": [
        {
          "name": "hub",
          "type": "address"
        },
        {
          "name": "alertName",
          "type": "bytes32"
        },
        {
          "name": "range",
          "type": "bytes32"
        },
        {
          "name": "port",
          "type": "uint256"
        }
      ],
      "name": "addAlert",
      "outputs": [
        {
          "name": "success",
          "type": "bool"
        }
      ],
      "payable": false,
      "stateMutability": "nonpayable",
      "type": "function"
    },
    {
      "constant": false,
      "inputs": [
        {
          "name": "idDevice",
          "type": "uint256"
        },
        {
          "name": "hub",
          "type": "address"
        }
      ],
      "name": "removeDevice",
      "outputs": [
        {
          "name": "success",
          "type": "bool"
        }
      ],
      "payable": false,
      "stateMutability": "nonpayable",
      "type": "function"
    },
    {
      "constant": true,
      "inputs": [
        {
          "name": "hub",
          "type": "address"
        }
      ],
      "name": "getMyHome",
      "outputs": [
        {
          "name": "",
          "type": "address"
        },
        {
          "name": "",
          "type": "address"
        },
        {
          "name": "",
          "type": "bytes32"
        },
        {
          "name": "",
          "type": "uint256[]"
        },
        {
          "name": "",
          "type": "uint256[]"
        }
      ],
      "payable": false,
      "stateMutability": "view",
      "type": "function"
    },
    {
      "constant": true,
      "inputs": [
        {
          "name": "idAlert",
          "type": "uint256"
        }
      ],
      "name": "getAlertById",
      "outputs": [
        {
          "name": "",
          "type": "uint256"
        },
        {
          "name": "",
          "type": "address"
        },
        {
          "name": "",
          "type": "address"
        },
        {
          "name": "",
          "type": "bytes32"
        },
        {
          "name": "",
          "type": "bytes32"
        },
        {
          "name": "",
          "type": "bool"
        },
        {
          "name": "",
          "type": "uint256"
        }
      ],
      "payable": false,
      "stateMutability": "view",
      "type": "function"
    },
    {
      "constant": false,
      "inputs": [
        {
          "name": "hub",
          "type": "address"
        },
        {
          "name": "name",
          "type": "bytes32"
        }
      ],
      "name": "createHome",
      "outputs": [
        {
          "name": "success",
          "type": "bool"
        }
      ],
      "payable": false,
      "stateMutability": "nonpayable",
      "type": "function"
    },
    {
      "constant": true,
      "inputs": [
        {
          "name": "idDevice",
          "type": "uint256"
        }
      ],
      "name": "getDeviceById",
      "outputs": [
        {
          "name": "",
          "type": "uint256"
        },
        {
          "name": "",
          "type": "address"
        },
        {
          "name": "",
          "type": "address"
        },
        {
          "name": "",
          "type": "bytes32"
        },
        {
          "name": "",
          "type": "uint256"
        }
      ],
      "payable": false,
      "stateMutability": "view",
      "type": "function"
    },
    {
      "constant": false,
      "inputs": [
        {
          "name": "idAlert",
          "type": "uint256"
        }
      ],
      "name": "switchAlert",
      "outputs": [
        {
          "name": "success",
          "type": "bool"
        }
      ],
      "payable": false,
      "stateMutability": "nonpayable",
      "type": "function"
    },
    {
      "constant": false,
      "inputs": [
        {
          "name": "hub",
          "type": "address"
        },
        {
          "name": "deviceName",
          "type": "bytes32"
        },
        {
          "name": "port",
          "type": "uint256"
        }
      ],
      "name": "addDevice",
      "outputs": [
        {
          "name": "success",
          "type": "bool"
        }
      ],
      "payable": false,
      "stateMutability": "nonpayable",
      "type": "function"
    },
    {
      "constant": false,
      "inputs": [
        {
          "name": "idAlert",
          "type": "uint256"
        },
        {
          "name": "hub",
          "type": "address"
        }
      ],
      "name": "removeAlert",
      "outputs": [
        {
          "name": "success",
          "type": "bool"
        }
      ],
      "payable": false,
      "stateMutability": "nonpayable",
      "type": "function"
    }
  ],
  "bytecode": "0x6060604052341561000f57600080fd5b6116fa8061001e6000396000f300606060405260043610610099576000357c0100000000000000000000000000000000000000000000000000000000900463ffffffff168063060018fd1461009e578063263681f3146101125780634a8027531461016c57806379f85a4b146102b7578063abe9355914610384578063cdf20073146103e2578063d1c0d1ea14610495578063dc4b8752146104d0578063f687b84b14610537575b600080fd5b34156100a957600080fd5b6100f8600480803573ffffffffffffffffffffffffffffffffffffffff169060200190919080356000191690602001909190803560001916906020019091908035906020019091905050610591565b604051808215151515815260200191505060405180910390f35b341561011d57600080fd5b610152600480803590602001909190803573ffffffffffffffffffffffffffffffffffffffff169060200190919050506107df565b604051808215151515815260200191505060405180910390f35b341561017757600080fd5b6101a3600480803573ffffffffffffffffffffffffffffffffffffffff16906020019091905050610935565b604051808673ffffffffffffffffffffffffffffffffffffffff1673ffffffffffffffffffffffffffffffffffffffff1681526020018573ffffffffffffffffffffffffffffffffffffffff1673ffffffffffffffffffffffffffffffffffffffff16815260200184600019166000191681526020018060200180602001838103835285818151815260200191508051906020019060200280838360005b8381101561025c578082015181840152602081019050610241565b50505050905001838103825284818151815260200191508051906020019060200280838360005b8381101561029e578082015181840152602081019050610283565b5050505090500197505050505050505060405180910390f35b34156102c257600080fd5b6102d86004808035906020019091905050610cc2565b604051808881526020018773ffffffffffffffffffffffffffffffffffffffff1673ffffffffffffffffffffffffffffffffffffffff1681526020018673ffffffffffffffffffffffffffffffffffffffff1673ffffffffffffffffffffffffffffffffffffffff168152602001856000191660001916815260200184600019166000191681526020018315151515815260200182815260200197505050505050505060405180910390f35b341561038f57600080fd5b6103c8600480803573ffffffffffffffffffffffffffffffffffffffff1690602001909190803560001916906020019091905050610dd4565b604051808215151515815260200191505060405180910390f35b34156103ed57600080fd5b6104036004808035906020019091905050610f88565b604051808681526020018573ffffffffffffffffffffffffffffffffffffffff1673ffffffffffffffffffffffffffffffffffffffff1681526020018473ffffffffffffffffffffffffffffffffffffffff1673ffffffffffffffffffffffffffffffffffffffff16815260200183600019166000191681526020018281526020019550505050505060405180910390f35b34156104a057600080fd5b6104b66004808035906020019091905050611056565b604051808215151515815260200191505060405180910390f35b34156104db57600080fd5b61051d600480803573ffffffffffffffffffffffffffffffffffffffff1690602001909190803560001916906020019091908035906020019091905050611165565b604051808215151515815260200191505060405180910390f35b341561054257600080fd5b610577600480803590602001909190803573ffffffffffffffffffffffffffffffffffffffff1690602001909190505061135a565b604051808215151515815260200191505060405180910390f35b600061059b6114cc565b60015481600001818152505033816020019073ffffffffffffffffffffffffffffffffffffffff16908173ffffffffffffffffffffffffffffffffffffffff168152505085816040019073ffffffffffffffffffffffffffffffffffffffff16908173ffffffffffffffffffffffffffffffffffffffff168152505084816060019060001916908160001916815250508381608001906000191690816000191681525050828160c001818152505060018160a0019015159081151581525050600360008773ffffffffffffffffffffffffffffffffffffffff1673ffffffffffffffffffffffffffffffffffffffff16815260200190815260200160002060040180548060010182816106ae919061153e565b9160005260206000209001600060015490919091505550806002600060015481526020019081526020016000206000820151816000015560208201518160010160006101000a81548173ffffffffffffffffffffffffffffffffffffffff021916908373ffffffffffffffffffffffffffffffffffffffff16021790555060408201518160020160006101000a81548173ffffffffffffffffffffffffffffffffffffffff021916908373ffffffffffffffffffffffffffffffffffffffff160217905550606082015181600301906000191690556080820151816004019060001916905560a08201518160050160006101000a81548160ff02191690831515021790555060c082015181600601559050506001600081548092919060010191905055506001915050949350505050565b60003373ffffffffffffffffffffffffffffffffffffffff166004600085815260200190815260200160002060010160009054906101000a900473ffffffffffffffffffffffffffffffffffffffff1673ffffffffffffffffffffffffffffffffffffffff1614151561085157600080fd5b600460008481526020019081526020016000206000808201600090556001820160006101000a81549073ffffffffffffffffffffffffffffffffffffffff02191690556002820160006101000a81549073ffffffffffffffffffffffffffffffffffffffff0219169055600382016000905560048201600090555050600360008373ffffffffffffffffffffffffffffffffffffffff1673ffffffffffffffffffffffffffffffffffffffff1681526020019081526020016000206003018381548110151561091c57fe5b9060005260206000209001600090556001905092915050565b600080600061094261156a565b61094a61156a565b3373ffffffffffffffffffffffffffffffffffffffff16600360008873ffffffffffffffffffffffffffffffffffffffff1673ffffffffffffffffffffffffffffffffffffffff16815260200190815260200160002060000160009054906101000a900473ffffffffffffffffffffffffffffffffffffffff1673ffffffffffffffffffffffffffffffffffffffff161480610a7357508573ffffffffffffffffffffffffffffffffffffffff16600360008873ffffffffffffffffffffffffffffffffffffffff1673ffffffffffffffffffffffffffffffffffffffff16815260200190815260200160002060010160009054906101000a900473ffffffffffffffffffffffffffffffffffffffff1673ffffffffffffffffffffffffffffffffffffffff16145b1515610a7e57600080fd5b600360008773ffffffffffffffffffffffffffffffffffffffff1673ffffffffffffffffffffffffffffffffffffffff16815260200190815260200160002060000160009054906101000a900473ffffffffffffffffffffffffffffffffffffffff16600360008873ffffffffffffffffffffffffffffffffffffffff1673ffffffffffffffffffffffffffffffffffffffff16815260200190815260200160002060010160009054906101000a900473ffffffffffffffffffffffffffffffffffffffff16600360008973ffffffffffffffffffffffffffffffffffffffff1673ffffffffffffffffffffffffffffffffffffffff16815260200190815260200160002060020154600360008a73ffffffffffffffffffffffffffffffffffffffff1673ffffffffffffffffffffffffffffffffffffffff168152602001908152602001600020600301600360008b73ffffffffffffffffffffffffffffffffffffffff1673ffffffffffffffffffffffffffffffffffffffff16815260200190815260200160002060040181805480602002602001604051908101604052809291908181526020018280548015610c5657602002820191906000526020600020905b815481526020019060010190808311610c42575b5050505050915080805480602002602001604051908101604052809291908181526020018280548015610ca857602002820191906000526020600020905b815481526020019060010190808311610c94575b505050505090509450945094509450945091939590929450565b60008060008060008060006002600089815260200190815260200160002060000154600260008a815260200190815260200160002060010160009054906101000a900473ffffffffffffffffffffffffffffffffffffffff16600260008b815260200190815260200160002060020160009054906101000a900473ffffffffffffffffffffffffffffffffffffffff16600260008c815260200190815260200160002060030154600260008d815260200190815260200160002060040154600260008e815260200190815260200160002060050160009054906101000a900460ff16600260008f8152602001908152602001600020600601549650965096509650965096509650919395979092949650565b6000610dde61157e565b83816020019073ffffffffffffffffffffffffffffffffffffffff16908173ffffffffffffffffffffffffffffffffffffffff168152505033816000019073ffffffffffffffffffffffffffffffffffffffff16908173ffffffffffffffffffffffffffffffffffffffff1681525050828160400190600019169081600019168152505080600360008673ffffffffffffffffffffffffffffffffffffffff1673ffffffffffffffffffffffffffffffffffffffff16815260200190815260200160002060008201518160000160006101000a81548173ffffffffffffffffffffffffffffffffffffffff021916908373ffffffffffffffffffffffffffffffffffffffff16021790555060208201518160010160006101000a81548173ffffffffffffffffffffffffffffffffffffffff021916908373ffffffffffffffffffffffffffffffffffffffff160217905550604082015181600201906000191690556060820151816003019080519060200190610f5c9291906115e9565b506080820151816004019080519060200190610f799291906115e9565b50905050600191505092915050565b600080600080600060046000878152602001908152602001600020600001546004600088815260200190815260200160002060010160009054906101000a900473ffffffffffffffffffffffffffffffffffffffff166004600089815260200190815260200160002060020160009054906101000a900473ffffffffffffffffffffffffffffffffffffffff16600460008a815260200190815260200160002060030154600460008b8152602001908152602001600020600401549450945094509450945091939590929450565b60003373ffffffffffffffffffffffffffffffffffffffff166002600084815260200190815260200160002060010160009054906101000a900473ffffffffffffffffffffffffffffffffffffffff1673ffffffffffffffffffffffffffffffffffffffff161415156110c857600080fd5b600115156002600084815260200190815260200160002060050160009054906101000a900460ff161515141561112c5760006002600084815260200190815260200160002060050160006101000a81548160ff02191690831515021790555061115c565b60016002600084815260200190815260200160002060050160006101000a81548160ff0219169083151502179055505b60019050919050565b600061116f611636565b600054816000018181525050838160600190600019169081600019168152505033816020019073ffffffffffffffffffffffffffffffffffffffff16908173ffffffffffffffffffffffffffffffffffffffff168152505084816040019073ffffffffffffffffffffffffffffffffffffffff16908173ffffffffffffffffffffffffffffffffffffffff168152505082816080018181525050600360008673ffffffffffffffffffffffffffffffffffffffff1673ffffffffffffffffffffffffffffffffffffffff168152602001908152602001600020600301805480600101828161125d919061153e565b916000526020600020900160008054909190915055508060046000805481526020019081526020016000206000820151816000015560208201518160010160006101000a81548173ffffffffffffffffffffffffffffffffffffffff021916908373ffffffffffffffffffffffffffffffffffffffff16021790555060408201518160020160006101000a81548173ffffffffffffffffffffffffffffffffffffffff021916908373ffffffffffffffffffffffffffffffffffffffff1602179055506060820151816003019060001916905560808201518160040155905050600080815480929190600101919050555060019150509392505050565b60003373ffffffffffffffffffffffffffffffffffffffff166002600085815260200190815260200160002060010160009054906101000a900473ffffffffffffffffffffffffffffffffffffffff1673ffffffffffffffffffffffffffffffffffffffff161415156113cc57600080fd5b600260008481526020019081526020016000206000808201600090556001820160006101000a81549073ffffffffffffffffffffffffffffffffffffffff02191690556002820160006101000a81549073ffffffffffffffffffffffffffffffffffffffff0219169055600382016000905560048201600090556005820160006101000a81549060ff021916905560068201600090555050600360008373ffffffffffffffffffffffffffffffffffffffff1673ffffffffffffffffffffffffffffffffffffffff168152602001908152602001600020600401838154811015156114b357fe5b9060005260206000209001600090556001905092915050565b60e06040519081016040528060008152602001600073ffffffffffffffffffffffffffffffffffffffff168152602001600073ffffffffffffffffffffffffffffffffffffffff1681526020016000801916815260200160008019168152602001600015158152602001600081525090565b815481835581811511611565578183600052602060002091820191016115649190611695565b5b505050565b602060405190810160405280600081525090565b60a060405190810160405280600073ffffffffffffffffffffffffffffffffffffffff168152602001600073ffffffffffffffffffffffffffffffffffffffff168152602001600080191681526020016115d66116ba565b81526020016115e36116ba565b81525090565b828054828255906000526020600020908101928215611625579160200282015b82811115611624578251825591602001919060010190611609565b5b5090506116329190611695565b5090565b60a06040519081016040528060008152602001600073ffffffffffffffffffffffffffffffffffffffff168152602001600073ffffffffffffffffffffffffffffffffffffffff16815260200160008019168152602001600081525090565b6116b791905b808211156116b357600081600090555060010161169b565b5090565b90565b6020604051908101604052806000815250905600a165627a7a723058207ce091abb75f2a9adb2aefeacf4a6afabf4385e87dbcccf2791dce9d2f9b70480029",
  "source": "\npragma solidity ^0.4.4;\n\ncontract GrandHouse {\n\n\tstruct Alert {\n\t\tuint idAlert; // \"Habitacion\"\n\t\taddress owner; // 0x..\n\t\taddress hub;\n\t\tbytes32 alertName;\n\t\tbytes32 range; // \"12:30,15:40\"\n\t\tbool state; // on/off\n\t\tuint port;\n\t}\n\n\tstruct Device {\n\t\tuint idDevice; //hub+numberOfDevices\n\t\taddress owner;\n\t\taddress hub;\n\t\tbytes32 deviceName;\n\t\tuint port;\n\t}\n\n\tstruct Home {\n\t\taddress owner; // 0x..\n\t\taddress hub; // 0x..\n\t\tbytes32 name;\n\t\tuint[] idDevices; // [\"idDevices\"]\n\t\tuint[] idAlerts;\n\t}\n\n\tuint numberOfDevices;\n\tuint numberOfAlerts;\n\n\tmapping(uint => Alert) private alertsList;\n\tmapping(address => Home) private homesList;\n\tmapping(uint => Device) private devicesList;\n\n\tfunction createHome(address hub, bytes32 name) public returns(bool success) {\n\n\t\t\tHome memory homeNew; \n\t\t\thomeNew.hub = hub;\n\t\t\thomeNew.owner = msg.sender;\n\t\t\thomeNew.name = name;\n\n\t\t\thomesList[hub] = homeNew;\n\n\t        return true;\t\n\t}\n\n\tfunction addDevice(address hub, bytes32 deviceName, uint port) public returns(bool success){\n\t\t\t\n\t\t\tDevice memory deviceNew;\n\t\t\tdeviceNew.idDevice = numberOfDevices;\n\t\t\tdeviceNew.deviceName = deviceName;\n\t\t\tdeviceNew.owner = msg.sender;\n\t\t\tdeviceNew.hub = hub;\n\t\t\tdeviceNew.port = port;\n\n\t\t\thomesList[hub].idDevices.push(numberOfDevices);\n\t\t\tdevicesList[numberOfDevices] = deviceNew;\n\t\t\tnumberOfDevices++;\n\n\t\t\treturn true;\n\t}\n\n\tfunction addAlert(address hub, bytes32 alertName, bytes32 range, uint port) returns(bool success){\n\t\t\n\t\tAlert memory alertNew;\n\t\talertNew.idAlert = numberOfAlerts;\n\t\talertNew.owner = msg.sender;\n\t\talertNew.hub = hub;\n\t\talertNew.alertName = alertName;\n\t\talertNew.range = range;\n\t\talertNew.port = port;\n\t\talertNew.state = true;\n\n\t\thomesList[hub].idAlerts.push(numberOfAlerts);\n\t\talertsList[numberOfAlerts] = alertNew;\n\t\tnumberOfAlerts++;\n\n\t\treturn true;\n\t}\n\n\tfunction getMyHome(address hub) public view returns(address, address, bytes32, uint[], uint[] ) {\n\t\trequire(homesList[hub].owner == msg.sender || homesList[hub].hub == hub);\n\t\treturn (homesList[hub].owner, homesList[hub].hub, homesList[hub].name, homesList[hub].idDevices, homesList[hub].idAlerts);\n\t\t//return homesList[hub];\n\t}\n\n\tfunction getAlertById(uint idAlert) public constant returns(uint, address, address, bytes32, bytes32, bool, uint){\n\t\t//require( alertsList[idAlert].owner == msg.sender);\n\t\treturn ( alertsList[idAlert].idAlert, alertsList[idAlert].owner, alertsList[idAlert].hub, alertsList[idAlert].alertName, alertsList[idAlert].range, alertsList[idAlert].state, alertsList[idAlert].port );\n\t}\n\n\tfunction getDeviceById(uint idDevice) public constant returns(uint, address, address, bytes32, uint){\n\t\t//require( devicesList[idDevice].owner == msg.sender);\n\t\treturn ( devicesList[idDevice].idDevice, devicesList[idDevice].owner, devicesList[idDevice].hub, devicesList[idDevice].deviceName, devicesList[idDevice].port );\n\t}\n\n\tfunction switchAlert(uint idAlert) public returns(bool success) {\n\t\trequire( alertsList[idAlert].owner == msg.sender );\n\t\tif( alertsList[idAlert].state == true ) {\n\t\t\talertsList[idAlert].state = false;\n\t\t} else {\n\t\t\talertsList[idAlert].state = true;\n\t\t}\n\t\treturn true;\n\t}\n\n\tfunction removeAlert(uint idAlert, address hub) public returns(bool success) {\n\t\trequire( alertsList[idAlert].owner == msg.sender );\n\t\tdelete alertsList[idAlert];\n\t\tdelete homesList[hub].idAlerts[idAlert];\n\t\treturn true;\n\t}\n\n\tfunction removeDevice(uint idDevice, address hub) public returns(bool success) {\n\t\t//first it is necesary remove all the alerts\t\n\t\trequire( devicesList[idDevice].owner == msg.sender );\n\t\tdelete devicesList[idDevice];\n\t\tdelete homesList[hub].idDevices[idDevice];\n\t\treturn true;\n\t}\n\n}",
  "sourcePath": "/Users/ramiroblazquezgonzalez/LTU/trufleLEarn/MetaCoin/contracts/GrandHouse.sol",
  "compiler": {
    "name": "solc",
    "version": "0.4.18+commit.9cf6e910.Emscripten.clang"
  },
  "schemaVersion": "1.0.1",
  "updatedAt": "2017-12-12T15:44:03.297Z"
}